{
  "transactions": [
    {
      "hash": "0x3f3fd7e38dd92b9e0d5548221a26a828f91da553f5fb6cb0a2b4c5b5ed682897",
      "transactionType": "CALL",
      "contractName": null,
      "contractAddress": "0x779877a7b0d9e8603169ddbd7836e478b4624789",
      "function": "transferAndCall(address,uint256,bytes)",
      "arguments": [
        "0x9DdfaCa8183c41ad55329BdeeD9F6A8d53168B1B",
        "1000000000000000000",
        "0xef5a59330044e3344acff46000e162e00971c84242f0ea45d299f3e21fbd3fed"
      ],
      "transaction": {
        "from": "0x8c62e92c4293b11feda7dbcfeace5717dcf84eea",
        "to": "0x779877a7b0d9e8603169ddbd7836e478b4624789",
        "gas": "0x1c1dc",
        "value": "0x0",
        "input": "0x4000aea00000000000000000000000009ddfaca8183c41ad55329bdeed9f6a8d53168b1b0000000000000000000000000000000000000000000000000de0b6b3a764000000000000000000000000000000000000000000000000000000000000000000600000000000000000000000000000000000000000000000000000000000000020ef5a59330044e3344acff46000e162e00971c84242f0ea45d299f3e21fbd3fed",
        "nonce": "0x1a",
        "chainId": "0xaa36a7"
      },
      "additionalContracts": [],
      "isFixedGasLimit": false
    }
  ],
  "receipts": [
    {
      "status": "0x1",
      "cumulativeGasUsed": "0x177c350",
      "logs": [
        {
          "address": "0x779877a7b0d9e8603169ddbd7836e478b4624789",
          "topics": [
            "0xddf252ad1be2c89b69c2b068fc378daa952ba7f163c4a11628f55a4df523b3ef",
            "0x0000000000000000000000008c62e92c4293b11feda7dbcfeace5717dcf84eea",
            "0x0000000000000000000000009ddfaca8183c41ad55329bdeed9f6a8d53168b1b"
          ],
          "data": "0x0000000000000000000000000000000000000000000000000de0b6b3a7640000",
          "blockHash": "0x3a49479f969a0df16275ac62c140dbe58e5d269d468013811a8797a5829eb6a3",
          "blockNumber": "0x81c43e",
          "transactionHash": "0x3f3fd7e38dd92b9e0d5548221a26a828f91da553f5fb6cb0a2b4c5b5ed682897",
          "transactionIndex": "0xbe",
          "logIndex": "0x1f5",
          "removed": false
        },
        {
          "address": "0x779877a7b0d9e8603169ddbd7836e478b4624789",
          "topics": [
            "0xe19260aff97b920c7df27010903aeb9c8d2be5d310a2c67824cf3f15396e4c16",
            "0x0000000000000000000000008c62e92c4293b11feda7dbcfeace5717dcf84eea",
            "0x0000000000000000000000009ddfaca8183c41ad55329bdeed9f6a8d53168b1b"
          ],
          "data": "0x0000000000000000000000000000000000000000000000000de0b6b3a764000000000000000000000000000000000000000000000000000000000000000000400000000000000000000000000000000000000000000000000000000000000020ef5a59330044e3344acff46000e162e00971c84242f0ea45d299f3e21fbd3fed",
          "blockHash": "0x3a49479f969a0df16275ac62c140dbe58e5d269d468013811a8797a5829eb6a3",
          "blockNumber": "0x81c43e",
          "transactionHash": "0x3f3fd7e38dd92b9e0d5548221a26a828f91da553f5fb6cb0a2b4c5b5ed682897",
          "transactionIndex": "0xbe",
          "logIndex": "0x1f6",
          "removed": false
        },
        {
          "address": "0x9ddfaca8183c41ad55329bdeed9f6a8d53168b1b",
          "topics": [
            "0x1ced9348ff549fceab2ac57cd3a9de38edaaab274b725ee82c23e8fc8c4eec7a",
            "0xef5a59330044e3344acff46000e162e00971c84242f0ea45d299f3e21fbd3fed"
          ],
          "data": "0x00000000000000000000000000000000000000000000000000000000000000000000000000000000000000000000000000000000000000000de0b6b3a7640000",
          "blockHash": "0x3a49479f969a0df16275ac62c140dbe58e5d269d468013811a8797a5829eb6a3",
          "blockNumber": "0x81c43e",
          "transactionHash": "0x3f3fd7e38dd92b9e0d5548221a26a828f91da553f5fb6cb0a2b4c5b5ed682897",
          "transactionIndex": "0xbe",
          "logIndex": "0x1f7",
          "removed": false
        }
      ],
      "logsBloom": "0x00000004000000000000000000000000000000000020000000008000020020000000000000000000000000000000000000000000000000000000000000000000000000000000000000000008000000000100000000000000000020000020000008000000000000000000000000000000000000000000000000000810000040000000000000000000000000010000800000000020000000000000000000000000000000000000200000000000010000000000000000000000000004000000000000000002000000000000000000000000000000000000000100000000000000000010000000000000800000000000000000000000000000000000000004000000",
      "type": "0x2",
      "transactionHash": "0x3f3fd7e38dd92b9e0d5548221a26a828f91da553f5fb6cb0a2b4c5b5ed682897",
      "transactionIndex": "0xbe",
      "blockHash": "0x3a49479f969a0df16275ac62c140dbe58e5d269d468013811a8797a5829eb6a3",
      "blockNumber": "0x81c43e",
      "gasUsed": "0x13399",
      "effectiveGasPrice": "0xf440e",
      "from": "0x8c62e92c4293b11feda7dbcfeace5717dcf84eea",
      "to": "0x779877a7b0d9e8603169ddbd7836e478b4624789",
      "contractAddress": null
    }
  ],
  "libraries": [],
  "pending": [],
  "returns": {},
  "timestamp": 1749392415,
  "chain": 11155111,
  "commit": "710fc38"
}